:020000040800F2
:1000000038010120AD010008D73800083D1F000865
:10001000D5380008750A0008ED3D00080000000012
:10002000000000000000000000000000DB380008B5
:10003000350B000800000000D9380008DD38000842
:10004000C7010008C7010008C7010008C701000870
:10005000C7010008C7010008C7010008C701000860
:10006000C7010008C7010008C7010008C701000850
:10007000C7010008C7010008C7010008C701000840
:10008000C7010008C7010008C70100080000000000
:10009000000000000000000000000000C701000890
:1000A000C7010008C7010008C7010008C701000810
:1000B000C7010008C7010008C7010008C701000800
:1000C000C7010008C7010008C7010008C7010008F0
:1000D000C7010008C7010008C701000800000000B0
:1000E000C7010008C7010008C701000800000000A0
:1000F000000000000000000000000000790A000875
:1001000000000000C7010008C7010008C70100087F
:1001100000000000000000000000000000000000DF
:10012000850A0008C7010008C7010008C7010008C8
:10013000C7010008000000000000000000000000EF
:10014000000000000000000000000000C7010008DF
:10015000C7010008C7010008C7010008C70100085F
:10016000C7010008C70100080000000000000000EF
:10017000000000000000000000000000000000007F
:1001800000000000C701000800000000000000009F
:10019000C7010008DFF810D000F0B8FB00480047A6
:1001A000D5600008AFF30080380101200648804781
:1001B00006480047FEE7FEE7FEE7FEE7FEE7FEE74C
:1001C000FEE7FEE7FEE7FEE7793900089501000843
:1001D0002DE9F05F0546002092469B46884606467C
:1001E000814640241BE0284641464746224600F00F
:1001F00056FA53465A46C01A914110D31146184632
:10020000224600F03DFA2D1A67EB01084F462246C0
:100210000120002100F034FA17EB00094E41201EA6
:10022000A4F10104DFDC484631462A464346BDE8D6
:10023000F09FD2B201E000F8012B491EFBD27047BB
:100240000022F6E710B513460A4604461946FFF7A2
:10025000F0FF204610BD2DE9FE4F804681EA0300E5
:10026000C00F0C46009021F0004123F00045B8EB90
:100270000200A94105D24046214690461C460B4645
:10028000024623F00040104347D0270DC7F30A0071
:10029000C3F30A510290401A019040286BDAC3F36D
:1002A000130040F4801B0098924620B10023D2EB4B
:1002B000030A63EB0B0B01985946C0F1400250460C
:1002C00000F0DEF906460D4650465946019A00F008
:1002D000F6F910EB08006141002487EA115284EA24
:1002E000E7731A4340D0009A62B3019A012A4FEA99
:1002F000075215DC001B61EB02014FF0004202EADD
:100300000752CDE90042001C41F5801132462B46D0
:1003100000F02DFA03B0BDE8F08F40462146F9E722
:10032000001B61EB0201001C41F5801300185B41CA
:100330002018A2F5001747EB030140EAD570B61963
:100340006D4111E06D084FEA360645EAC0754FEA87
:100350000752001B61EB0201001C41F580114908A6
:100360004FEA30000019514132462B4603B0BDE838
:10037000F04F00F0EDB90098012240000023D0EBCF
:10038000020263EBE073009821464FEAE074B8EB99
:10039000000061EB0401E9E783F000435BE781F0D3
:1003A000004158E72DE9FE4F81EA030404F00044C0
:1003B00021F0004100944FF0000B23F0004350EA7D
:1003C00001045ED052EA03045BD0C3F30A54C1F3C4
:1003D0000A552C44A4F2F3340194A0FB0254C1F357
:1003E000130141F48011C3F3130343F4801301FBA1
:1003F000024400FB034E840A970A44EA815447EA08
:100400008357A4FB076802958D0A05FB07854FEA11
:10041000932C04FB0C542705029D4FEA065847EA2B
:100420001637B5EB08056EEB070C870E920E47EA00
:10043000811742EA8312A7FB0201B6EB0B0164EBC2
:1004400000042B0D43EA0C335E1844EB1C50DA46D3
:100450005146E7FB0201C5F313044FEA0B3343EAAD
:1004600014534FEA0432019C43EA0603A4F10C043E
:100470000294009CCDE900B400F079F903B0BDE826
:10048000F08F00200146F9E72DE9F04D81EA0304E1
:1004900004F0004B21F0004514464FF0000A23F011
:1004A000004150EA050220D054EA01021DD0C5F3F4
:1004B0000A570246C5F31303C1F31300C1F30A56EA
:1004C00040F4801543F48013A7EB0608101BD646B2
:1004D00008F2FD3873EB050002D308F1010801E0D2
:1004E00092185B41B8F1000F03DA00200146BDE825
:1004F000F08D00204FF48011064684460EE0171B55
:1005000073EB050705D3121B63EB050306434CEAA7
:10051000010C49084FEA300092185B4150EA01078C
:10052000EDD152EA030012D082EA040083EA050109
:10053000084305D0101BAB4106D20122002306E080
:1005400000224FF0004302E06FF0010253101AEB5B
:1005500006004CEB085110EB0A0041EB0B01BDE823
:10056000F04D00F0F5B80EB5C10F80EAE070084418
:10057000CA07002140F233438DE80E000A460B46BD
:1005800000F0F5F803B000BD70B5C1F30A5201F0F8
:1005900000450024C1F3130140F2FF3341F4801100
:1005A0009A4201DA002070BD40F233439A42A2F22F
:1005B000334203DC524200F072F800E090402C43DA
:1005C000F1D0404270BD00F0004230F000400AD04F
:1005D000C10D01F56071C0F3160042EA0151C20875
:1005E00040071143704700200146704730B5041E94
:1005F00071F1000404DB4FF00044404264EB010160
:10060000141E73F1000405DB1C464FF000435242F8
:1006100063EB0403994208BF904230BD01F00043F0
:1006200030B421F0004150EA010206D00A0DA2F5D3
:100630006072C1F31301002A02DC30BC0020704755
:10064000440F44EAC104C100E01830BC00EBC250C2
:1006500000F047B830B50B460146002020220124A7
:1006600009E021FA02F59D4205D303FA02F5491B80
:1006700004FA02F52844151EA2F10102F1DC30BD96
:10068000202A04DB203A00FA02F100207047914052
:10069000C2F1200320FA03F3194390407047202A47
:1006A00004DB203A21FA02F00021704721FA02F31C
:1006B000D040C2F120029140084319467047202AD9
:1006C00006DBCB17203A41FA02F043EAE07306E07A
:1006D00041FA02F3D040C2F120029140084319468A
:1006E00070470029A8BF7047401C490008BF20F090
:1006F0000100704710B4B0FA80FC00FA0CF050EA28
:10070000010404BF10BC704749B1CCF1200421FAA8
:1007100004F411FA0CF118BF012121430843A3EBA3
:100720000C01CB1D4FEA00614FEA102042BF0020B0
:1007300010BC704700EBC35010440029A4BF10BC8C
:100740007047401C490008BF20F0010010BC7047F2
:1007500010B5141E73F1000408DA401C41F10001C9
:1007600092185B411A4301D120F0010010BD2DE920
:10077000F04D92469B4611B1B1FA81F202E0B0FA17
:1007800080F220329046FFF77BFF04460F4640EA96
:100790000A0041EA0B0153465A46084313D011465A
:1007A00053EA010019D0C8F140025046FFF777FF25
:1007B00005460E46504659464246FFF761FF08433C
:1007C00005D0012004E020463946BDE8F08D002028
:1007D000054346EAE0762C4337430A986305E40A6A
:1007E000A0EB08000022FD0A44EA47540A3002D573
:1007F00000200146E9E7010510196941DDE90845D6
:1008000000196941BDE8F04DA2E770B521F0004341
:1008100003430CD0C1F30A550024D5EB040564EB67
:100820000403D617AD1AB34102DB0020014670BDA8
:10083000201841EB025170BD2DE9F04D00231A46FE
:100840001B1A8A4103DB00200146BDE8F08DC1F38D
:100850000A52C1F3130141F480154FF0000BD10788
:1008600002D100186D41521E0027044640F2FF11CC
:10087000384601EB620A3E468046024600204FF4AD
:100880008011FFF70CFFC2197141BB1846EB010044
:10089000B4EB030C75EB000C04D3E41A65EB000514
:1008A00017460E46241908F101006D418046342890
:1008B000E3DDF91946EB0600091BA84103D24FF00E
:1008C000FF32134601E0002213461BEB070046EB04
:1008D0000A51BDE8F04DFFF73BBFC1F30A52C1F327
:1008E000130140F2FF3341F480119A4202DA0020F2
:1008F0000146704740F233439A42A2F2334202DC8F
:100900005242FFF7CCBEFFF7BBBE0000064C074DBE
:1009100006E0E06840F0010394E8070098471034CF
:10092000AC42F6D3FFF73AFC487000086870000844
:100930000EB540F2334102910021CDE900110A4683
:100940000B46FFF714FF03B000BD0000464910B589
:100950004A6822F440324A604A6843681A434A604F
:1009600001684A6822F480724A6001684A68036933
:1009700042EA03224A6001684A6822F040724A60F3
:1009800001684A6883681A434A6001688A6822F4E9
:1009900000628A6001688A68C3681A438A60816A53
:1009A0006FF07062D14201688A6822F070628A60DA
:1009B00001688A680CD0836A1A438A6001688A6871
:1009C00022F040528A6001688A68C36A1A4301E0D3
:1009D00022F040528A6001688A6822F002028A602E
:1009E00001688A68037E42EA43028A6090F8201018
:1009F000002901684A680FD042F400624A60016829
:100A00004A6822F460424A6001684A68174C436AA7
:100A100004EB43331A4301E022F400624A600168A8
:100A2000CA6A22F47002CA620168CA6A838B104CD7
:100A300004EB03531A43CA6201688A6822F4007205
:100A40008A6001688A6890F8303042EA43228A60FE
:100A500001688A6822F480628A6001688A68406955
:100A600042EA8020886010BD0023014000E0FFFFC3
:100A70000000F0FFFEE70000014800F07DB9000033
:100A800090FC0020014800F077B90000A0FB002096
:100A900001681823CAB2103AB2FBF3F2054B6FF3A8
:100AA0000901032A9B5CC36500D9091D81650846BD
:100AB00070470000756E000810B5014600208B6974
:100AC0008A6A4FF0C07453B1B3F5005F15D072B1AC
:100AD000012A0CD0022A0AD0032A09D104E01AB153
:100AE000012A06D0022A03D1C96AC90100D5012012
:100AF00010BDC96AA142FAD010BD002AF7D0012A60
:100B0000F2D0022AF3D0032AF3D010BD30B5046826
:100B1000256825F480252560046863608368402B80
:100B2000036803D099600068C26030BD9A600068B5
:100B3000C16030BD704772B6FEE7000078B5002492
:100B4000009490F83C20012A19D0012280F83C2022
:100B50000A6807250368092A13D9DE680A3A02EBF6
:100B600042029540AE43DE600A788B680A3A02EB97
:100B7000420293400268D5682B43D36010E0022004
:100B800078BD1E6902EB42029540AE431E610A78B1
:100B90008B6802EB42029340026815692B43136194
:100BA0004A681F25072A13D203685E6B521E02EBA8
:100BB00082029540AE435E630A8893B20A79521E60
:100BC00002EB820293400268556B2B43536327E08C
:100BD00003680D2A12D21E6BD21F02EB82029540CF
:100BE000AE431E630A8893B20A79D21F02EB8202D7
:100BF00093400268156B2B43136311E0DE6A0D3AD4
:100C000002EB82029540AE43DE620A8893B20A7913
:100C10000D3A02EB820293400268D56A2B43D362FD
:100C2000164B0568144A9D4206D10D68122D03D15A
:100C3000556845F48005556005689D4218D10B68DC
:100C4000102B01D0112B13D1536843F400035360D0
:100C5000096810290CD10A490A4A0968B1FBF2F166
:100C600001EB8101490000E0491E00910029FBD100
:100C700080F83C40002078BD002301400020014066
:100C80005000002040420F0070B504004FF00006F5
:100C900003D0206C002510B107E0012070BD204674
:100CA00000F01CF8656484F83C50206CC00610D439
:100CB000206C20F4885040F0020020642046FFF7AA
:100CC00045FE6564206C20F0020040F001002064C5
:100CD00000E0012684F83C50304670BD70B586B007
:100CE000064614216846FFF7ABFA1E493068884271
:100CF00035D11D480025016841F48071016000680C
:100D000000F48070059018481438016841F0020121
:100D100001600068694600F0020005900220009022
:100D20000320CDE90105114800F0AAF9114C104843
:100D3000C4E900050015A560C4E9035080006061A6
:100D40008000A0618011E0614002C4E908052046EE
:100D500000F0E2F808B1FFF7EEFEB463A66306B058
:100D600070BD0000002001404438024000040240F1
:100D700010640240A0FB00202DE9F84304464FF028
:100D80000009CDF8009063484FF41651A56D006836
:100D9000B0FBF1F72E6894F85C20082101FA02F00C
:100DA00030420FD02068026852070BD5026822F04B
:100DB0000402026094F85C008140A960606D40F01C
:100DC0000100606594F85C104FF0010808FA01F02A
:100DD000304208D021684969090604D5A860606DD1
:100DE00040F00200606594F85C10042088403042B6
:100DF00008D021680968890704D5A860606D40F0B3
:100E00000400606594F85C1010208840304218D0CF
:100E100021680968090714D5A8602068016849039A
:100E200004D50068000308D5A16C07E00168C90576
:100E300003D4016821F008010160216C09B120464A
:100E4000884794F85C1020208840304231D02168D7
:100E50000968C9062DD5A86094F8350005282068D2
:100E6000016806D0490347D5006800031DD4616CB2
:100E70001CE021F0160101602068416921F0800129
:100E80004161206C08B9A06C20B12068016821F094
:100E90000801016094F85C103F208840A86084F845
:100EA000358084F83490216D1FE0E16B09B1204654
:100EB0008847606D00282BD0606DC00714D00520D6
:100EC00084F835002068016821F001010160009874
:100ED000401C0090B84203D820680068C007F6D1D3
:100EE00084F8358084F83490E16C002910D001B08A
:100EF0002046BDE8F04308470168C905D5D401681C
:100F000021F01001016084F8358084F83490CCE73A
:100F1000BDE8F883500000202DE9F041044600F0C0
:100F200087F905465CB1022084F83500002684F874
:100F300034602068016821F0010101600DE00120AA
:100F4000BDE8F08100F074F9401B052805D9202088
:100F50006065032084F83500F2E720680068C00768
:100F6000F0D121680A6820480240D4E901031843FF
:100F7000D4E903352B43184363691843A369184325
:100F8000E3691843236A18431043626A042A03D1B1
:100F9000D4E90B231A431043086020684069656A4E
:100FA00020F0070128460D43012704280CD1A06A30
:100FB0000543E06A40B12046FFF77EFD20B14020A6
:100FC000606584F83570BAE7206845612046FFF710
:100FD0005FFD94F85C203F2191408160666584F854
:100FE00035700020ACE700003F8010F02DE9F041A3
:100FF0000446866D90F83400002501280DD00120AC
:1010000084F8340094F835700020012F07D084F85C
:10101000340002252846BDE8F0810220FBE70227C4
:1010200084F8357060652046FFF770FD94F85C1019
:101030003F208840B0602068016841F016010160DF
:10104000206C20B12068016841F00801016020682F
:10105000016841F001010160DCE7000070B5044661
:1010600000F0E6F80546601C02D00448007804440D
:1010700000F0DEF8401BA042FAD370BD440000200F
:101080002DE9F84FDFF87C91002209F1040A0AF1FA
:10109000040B03274FF00F0C0BF1040E01250B6816
:1010A00095402B40AB426ED10C7904F00304012C27
:1010B00001D0022C15D18668540007FA04F826EAFC
:1010C0000806D1F80C8008FA04F848EA0608C0F8C7
:1010D00008804468AC430D79C5F30015954025435D
:1010E00045600C79E443A40708D0C568540007FAAA
:1010F00004F6B5438E68A6402E43C6600C7904F012
:101100000304022C11D1D40800EB8406356A54077D
:10111000E40E0CFA04F825EA0805D1F8108008FA64
:1011200004F848EA0508C6F820800568540007FA64
:1011300004F6B5430E7906F00306A6402E4306607A
:101140004C6814F4403F57D02F4C256845F4804537
:101150002560246822F0030504F4804400942B4C9D
:1011600005EB0408D8F808589407260F0CFA06F483
:10117000A543274CA04201D1002415E0254CA042F4
:1011800002D1012410E037E0234CA04201D1022417
:101190000AE0224CA04201D1032405E0204CA042E9
:1011A00001D1042400E00724B4402C43C8F80848C7
:1011B000D9F800404D464E689C43F60300D51C43C9
:1011C0002C60DAF8004055464E689C43B60300D5C3
:1011D0001C432C60DBF800405D464E689C43F602E1
:1011E00000D51C432C60DEF8004075464E689C43D9
:1011F000B60200D51C432C60521C102AFFF44EAFDF
:10120000BDE8F88F003C0140443802400030014006
:10121000000002400004024000080240000C0240AE
:10122000001002400AB1816170470904FBE7000029
:10123000014880687047000044000020024881682F
:101240000278114481607047440000200B4810B5BB
:10125000016841F400710160016841F4806101603E
:10126000016841F480710160032000F071F80020F2
:1012700000F006F800F024F8002010BD003C024009
:1012800070B50D4D04464FF47A712878B1FBF0F03B
:101290000A490968B1FBF0F000F002FB48B9102CD4
:1012A00007D200222146501E00F032F800206C6068
:1012B00070BD012070BD00004400002050000020DF
:1012C0000B4882B0016841F480410160006800F47D
:1012D000804000900648001F016841F08051016085
:1012E000006800F080500090072002B000F030B895
:1012F00044380240002809DB00F01F020121914020
:101300004009800000F1E020C0F8001170470000A3
:10131000F0B40E4B1B68C3F30223C3F10704042C83
:1013200000D904241D1D072D01D2002300E0DB1E7F
:10133000012606FA04F56D1E0D409D409E40761E66
:10134000164045EA0601F0BC02F022BF0CED00E0B9
:10135000064A00F0070110684FF6FF03184040EA04
:101360000120034908431060704700000CED00E0C5
:101370000000FA052DE9F0470D46040065D0DFF8BE
:101380001491D9F80000EFB200F00700A84207D28C
:1013900089F80070D9F8000000F00700A84254D185
:1013A00020683D4E810712D5400703D5306840F4D0
:1013B000E05030602078000703D5306840F460408A
:1013C00030603068A16820F0F00008433060207879
:1013D000C0072DD0304960680839012812D0022892
:1013E00013D0032811D00968890700292DDA316844
:1013F00021F0030101433160FFF71AFF804641F2FB
:10140000883A0EE009688903EFE709688901ECE78B
:10141000FFF70EFFA0EB0801514502D90320BDE8FC
:10142000F0873068616800F00C00B0EB810FEFD1FD
:10143000D9F80010484601F00701A94207D9077002
:10144000006800F00700A84201D00120E7E72078FB
:10145000400705D53068E16820F4E050084330606B
:101460002078000706D53068216920F4604040EA02
:10147000C100306000F038F83168084AC1F3031148
:10148000515CC8400649086006480068FFF7F8FE4E
:101490000020C4E7003C0240083802407D6E00088E
:1014A00050000020480000200448054900680968F1
:1014B000044AC1F38221515CC840704750000020AB
:1014C000083802408D6E0008044805490068096824
:1014D000044AC1F34231515CC840704750000020BB
:1014E000083802408D6E0008154810B5006810F0ED
:1014F0000C01144813D0431004290FD008290ED131
:101500000F4C241F216801F03F022168490207D5D2
:101510002068C0F38810A0FB030106E0184610BD48
:101520002168C1F38811A1FB00010023FEF750FEE2
:101530002168C1F30141491C4900B0FBF1F010BD25
:10154000083802400024F4002DE9F84F040075D05B
:101550002078DFF838A3C007AAF1040548D00AF1C3
:1015600004000168C1F38101012908D00068C0F3BB
:10157000810002280AD1DAF80000400206D5286866
:10158000800335D560680028E1D031E06068B0F5AF
:10159000803F10D0B0F5A02F286810D020F4803004
:1015A0002860286820F4802028606068A0B1FFF7D8
:1015B0003FFE06460CE0286840F48030F4E740F433
:1015C00080202860F7E7FFF733FE801B642871D87E
:1015D00028688003F7D50BE0FFF72AFE064604E0F3
:1015E000FFF726FE801B6428F1D828688003F7D413
:1015F0002078DFF89C9280074FF0000B3DD5A34880
:10160000001D016811F00C0F08D00068C0F38100C4
:1016100002280AD1DAF80000400206D428688007C0
:1016200015D5E068012809D111E0E068B8B10120C2
:10163000C9F80000FFF7FCFD064605E022E1FFF7D0
:10164000F7FD801B0228C2D828688007F7D52868D4
:10165000216920F0F80040EAC10028600DE0C9F8D7
:1016600000B0FFF7E5FD064604E0FFF7E1FD801B53
:1016700002281FD828688007F7D42078000722D5D1
:10168000824F84486169703771B101210160FFF7B1
:10169000CFFD064604E0FFF7CBFD801B022809D8EA
:1016A00038688007F7D50EE0C0F800B0FFF7C0FD3E
:1016B000064605E082E0FFF7BBFD801B02287DD8CF
:1016C00038688007F7D42078400765D56F484FF019
:1016D00000083C300068C0000BD46C483C30016806
:1016E00041F08051016000684FF0010800F0805027
:1016F0000090694F3868C0050FD4386840F4807096
:101700003860FFF795FD064604E0FFF791FD801B6A
:10171000022853D83868C005F7D55C4FA0686C37ED
:1017200001280FD00528386810D020F0010038605B
:10173000386820F004003860A068B0B1FFF778FD89
:1017400006460EE0386840F00100F4E740F004007F
:101750003860F7E7FFF76CFD811B41F2883081426A
:1017600063D838688007F5D50DE0FFF761FD0646C0
:1017700006E0FFF75DFD811B41F28830814254D8BD
:1017800038688007F5D4B8F1000F05D03F483C30E9
:10179000016821F080510160A069B8B33B49091D7F
:1017A0000968C1F38101022946D00228584606D0B3
:1017B000C9F86000FFF73CFD044639E035E04F46CC
:1017C000C9F86000FFF734FD064604E0FFF730FD7E
:1017D000801B022829D828688001F7D4D4E90701A2
:1017E0000843A16A2D4A490802EB0141626A41EAB5
:1017F0008211084394F82C1040EA0161CAF80010E5
:1018000001203866FFF714FD044605E03CE0FFF7D1
:101810000FFD001B022808D828688001F7D533E0A7
:10182000FFF706FD001B022802D90320BDE8F88F50
:1018300028688001F4D427E00128F7D0DAF8000006
:10184000E26900F4800191421CD1226A00F03F015C
:10185000914217D147F6C071626A0140B1EB821F15
:1018600010D1A26A4FF0FF3300F4403103EB520273
:10187000B1EB024F06D194F82C1000F07060B0EB81
:10188000016F01D00120D1E70020CFE704380240EA
:1018900000004742800E4742007000400000FFFFFA
:1018A00010B5401EB0F1807F01D3012010BD4FF074
:1018B000E02460610F21601702F06AFC0020A06143
:1018C00007202061002010BD70B590F83C20012A4F
:1018D0002CD0012580F83C50022280F83D2002687F
:1018E0005368946823F070060B6833435360104BC1
:1018F00002689A420ED0B2F1804F0BD00D4B9A4243
:1019000008D00D4B9A4205D00C4B9A4202D00C4B9A
:101910009A4204D1496824F080031943916080F809
:101920003D50002180F83C10084670BD022070BD7B
:10193000000001400004004000080040000C00408E
:101940000040014010B5040003D094F83D0010B1F0
:1019500007E0012010BD002084F83C00204600F084
:101960001FF8022084F83D00211D206802F00CF8C9
:10197000012084F8460084F83E0084F83F0084F893
:10198000400084F8410084F8420084F8430084F861
:10199000440084F8450084F83D00002010BD00009C
:1019A00038B50546006800221949B0F1804F26D0AD
:1019B000184B984222D1086840F00200086008687D
:1019C000164C00F002000090134820604FF0206099
:1019D00060604020C4E90202000120618000606173
:1019E0008000C4E90602C000C4E908022046FFF7EF
:1019F00093FA08B1FFF79FF8EC62A56338BD086859
:101A000040F001000860086800F00100009038BD57
:101A10004038024000040040B860024090FC0020C2
:101A200070B5044690F83C000025012817D0012627
:101A300084F83C60022084F83D002068826822F02F
:101A4000770222F47F4282600868502838D00DDC8B
:101A500020284FD005DC90B3102811D14AE0022095
:101A600070BD302846D040280AD13BE060282FD0F6
:101A700070280DD0B0F5805F03D0B0F5005F12D0B4
:101A8000012584F83D60002084F83C00284670BDA4
:101A9000CB68D1E90121206802F044F82068816810
:101AA00041F0770109E0CB68D1E90121206802F01B
:101AB00039F82068816841F480418160E1E719E0EC
:101AC000CA684968206802F0E7F85021206806E0FB
:101AD000CA684968206802F0F0F86021206802F0C6
:101AE0002BF8CEE7CA684968206802F0D5F8402193
:101AF0002068F4E7226801461046F0E770470000CE
:101B000010B586B0044614216846FEF799FB0E49CD
:101B10002068884215D10D480021026842F0040275
:101B20000260006800F0040005904FF4807000909F
:101B30000220CDE90101CDE9031069460448FFF711
:101B40009FFA06B010BD000000040040303802408B
:101B50000008024070B5044690F83C0000260D468F
:101B600001280FD0012084F83C006AB1042A1DD05E
:101B7000082A2FD00C2A3FD00126002084F83C00F0
:101B8000304670BD022070BD206801F0DDFF206886
:101B9000816941F0080181612068816921F00401B7
:101BA0008161206881692A69114311E0206801F090
:101BB000F7FF2068816941F40061816120688169D3
:101BC00021F480618161206881692A6941EA0221EA
:101BD0008161D2E7206802F011F82068C16941F004
:101BE0000801C1612068C16921F00401C161206858
:101BF000C1692A69114311E0206802F02BF82068BE
:101C0000C16941F40061C1612068C16921F480614A
:101C1000C1612068C1692A6941EA0221C161ACE75A
:101C200010B5040003D094F83D0010B107E0012086
:101C300010BD002084F83C00204600F01EF8022071
:101C400084F83D00211D206801F09EFE012084F8EB
:101C5000460084F83E0084F83F0084F8400084F891
:101C6000410084F8420084F8430084F8440084F87A
:101C7000450084F83D00002010BD704710B5094CA8
:101C80004FF4FA5308210848226800F013F8074877
:101C90002168814201D100F5FA4020600120606096
:101CA00010BD00003000002048FC0020580100203A
:101CB000704700002DE9F04117460D0004464FF033
:101CC000000611D0042D12D0082D13D094F8410035
:101CD00002287DD08DB1042D12D0082D13D094F898
:101CE0004100012812D0ABE094F83E00F0E794F8F0
:101CF0003F00EDE794F84000EAE794F83E00F0E793
:101D000094F83F00EDE794F84000EAE70FB9002BA4
:101D10005FD102208DB1042D12D0082D13D084F88C
:101D200041004B484B494C4A85B1042D22D0082D27
:101D300062D00C2D75D001265BE084F83E00F0E700
:101D400084F83F00EDE784F84000EAE7D4F824C0C7
:101D5000CCF83C00606A0164606A3946C26422685B
:101D6000606A3432FFF742F998BB2068C16841F4D9
:101D7000007112E0D4F828C0CCF83C00A06A0164DD
:101D8000A06A3946C2642268A06A3832FFF72EF989
:101D9000F8B92068C16841F48061C1600122294618
:101DA000206801F03DFE2D492068884203D1426C35
:101DB00042F4004242642068884211D0B0F1804F62
:101DC0000ED0274988420BD02649884208D001E02E
:101DD00010E035E02449884202D02449884204D1E9
:101DE000816801F00701062903D0016841F0010173
:101DF00001603046BDE8F081D4F82CC0CCF83C003E
:101E0000E06A0164E06A3946C2642268E06A3C32F2
:101E1000FFF7ECF8A0B92068C16841F40061BCE7A5
:101E2000FFE7D4F830C0CCF83C00206B0164206B95
:101E30003946C2642268206B4032FFF7D7F808B1F8
:101E40000120D7E72068C16841F48051A5E7000070
:101E50003B3A0008993A0008D13A000800000140D6
:101E60000004004000080040000C00400040014019
:101E700070B5040004D094F83D00002510B106E0D0
:101E8000012070BD84F83C50204600F023F8242047
:101E900084F83D002068C16821F40051C1602046EB
:101EA00001F01EFF2068016921F490410161206862
:101EB000416921F02A0141612068C16841F4005163
:101EC000C1602564202084F83D0084F83E00002095
:101ED00070BD000010B586B0044614216846FEF7B8
:101EE000AFF91349206888421FD1124800210268C7
:101EF00042F400320260006800F4003005900D48A2
:101F00001038026842F001020260006800F001002F
:101F100005900C2000900220CDE901010720CDE9B9
:101F2000031069460448FFF7ABF806B010BD000087
:101F3000004400404038024000000240FEE700003C
:101F40002DE9F84F47F28377002401F00DF8D34DC7
:101F5000A34649F29008A5F818B0D148AF834FF4D2
:101F6000805A4FF4F07C40F2134240F2034341F2B6
:101F7000134941F2040E4FF4A07147454FDC45F27E
:101F80001038A7EB0800474578D026DC41F22653ED
:101F9000A7EB03009F4272D011DC41F20553A7EB7F
:101FA00003009F426CD005DC992F6AD0B7F5AA7F59
:101FB00068D17EE00C2878D01B28F9D186E05B2818
:101FC00074D0DC2873D0A0F530602D3870D0A0F22A
:101FD000E240B0F5005FEBD182E042F27948A0EB3D
:101FE000080740456FD00DDCF82849D000F60730CF
:101FF000B0F5005068D00B2867D0A0F570607A3833
:10200000D6D186E00A2F73D00D2F72D0A7F50067C6
:10201000A83F6FD0A7F54077263FC9D18CE0B0F537
:102020002C7F68D019DCB0F5267F70D00ADCA0F5D3
:10203000007072386CD01E2822D0232867D0252843
:1020400020D19FE0A0F50070993873D0082872D095
:102050000C2870D00F2815D1ABE0B0F57E7F0CD0E6
:1020600011DCA0F50070B1386FD088426ED0A0F5B9
:10207000807045386BD0012804D1F5E03CE02AE0BF
:102080006CE065E077E06FF4DC51401872D0A0F5A9
:102090000060F43803D004282AD050456BD141F2B7
:1020A00008006883B0217F481FE008E0CCE075E0BD
:1020B00077E041F2020068839C217B4815E0032011
:1020C00068837A4C21E02AE04DE01BE0774C6A837C
:1020D000093406267CE0744C6A839C340C2677E035
:1020E0007148A5F81AA09C21A83003F0DCFF6FE02E
:1020F000C4E0B7E018E065E06C4C40F6136068831C
:10210000241F1EE0694C6B83E41C0326B0E02DE025
:102110004DE041F21240688390216548E5E7644C48
:102120006A839034412653E0614CA5F81A90D1346B
:1021300012264DE03FE01FE05C4C41F20340688313
:10214000A41E022694E0018042E03DE07EE084E0AF
:10215000544CA5F81A90DB3C1D2689E0A5F81AE03E
:10216000D8215448C1E741F2021001E04FF48850F1
:10217000688303E018E08DE0A5F81AA04D48CC2153
:10218000D830B2E74548474C0A306B834FF4C871EA
:10219000BE3C01801E26801EF021D4E740F2135081
:1021A0000BE041F2174008E0A5F81A9006E06B83B7
:1021B00004E06A8302E041F2036068833B4CA41DA3
:1021C000032605E0A5F81A90364C6A83A03C6526E4
:1021D000688BC0F30030E88364B10921364803F00E
:1021E0003CFF3146204603F038FF304806210F30CF
:1021F00003F033FF002000F0BBFF002000F07AFA6C
:10220000A88BA0F5144188391CD185F806B04FF68B
:10221000E072084600F0B6F80021084600F09AFE89
:10222000A0F57F411F390DD106208DF80000012255
:1022300069463A2000F0F6FA688B20F010006883B7
:102240000120A871BDE8F88F6A8302E040F20740E0
:102250006883194C703C45260AE0124C6B833B3C6A
:102260003B2605E06B8300E06A83134C2B3C2B2656
:102270000A480A30A0F800C0801E64E70948A5F8A3
:102280001AA0C021B03003F00EFF04484FF4C8710B
:102290000A3058E701485946083054E7000000204A
:1022A000F3E6FFFFE86A0008E667000850650008EB
:1022B0002A690008586C00086C6E000800F0F800ED
:1022C000000201F0FC0140EAC10040EAD200704780
:1022D0002DE9FF4F81B09A46DDE90EB60F468046E4
:1022E000F02840DAB7F5A07F3DDA06EB460108EBAF
:1022F0004100012837D407EBC600012833D400245D
:10230000052C2CD003981E4900EB800020440025AA
:1023100011F800905FEAC9700BD0012E02D0CDF801
:1023200000A00CE0781901B208EB040000B252469C
:1023300022E0D3450DD0012E18D0CDF800B005FB1A
:10234000067001B204FB0680334600B21A4600F064
:1023500041F86D1C6DB24FEA5909082DDADB641C97
:1023600064B2062CCCDB05B0BDE8F08F781901B261
:1023700008EB040000B25A4600F004F8E9E7000058
:10238000656500082DE9F0410C46050017461CD490
:10239000002C1ADB0E4EB6F90C00854215DAB6F9A0
:1023A0000E00844211DAB07918B1104603F030FE05
:1023B000074623462A461946104600F037FE39469E
:1023C000F08CBDE8F04101F023B9BDE8F0810000D8
:1023D000000000202DE9F04FDFF8EC9285B00746B1
:1023E00099F80600DDF838801C4616460D4618B1EF
:1023F000404603F00DFE8046002E03DA704206B21E
:10240000B81B07B2B81900B2002F00DA0027B9F9DB
:102410000C104E46884200DD0846C01B0FFA80F9BA
:10242000002C03DA604204B2281B05B2281900B25E
:10243000002D00DA0025B6F90E10884200DD0846AE
:10244000401B04B22819401E03B207EB0900401ECE
:1024500002B22946384600F0E9FD9C494FF480302D
:10246000086001019A48816197494FF0E06EC98C7C
:10247000C0F818E00A0AC9B2944D4FF0876BC5F84E
:1024800000B0944D4FF4000A5646C5F800A0D3079B
:102490009B0D02F0040743EA072302F0800743EA9A
:1024A0004703836102F0080302F0100743EA47077D
:1024B000102303EA520C47EA0C0702F0400C47EAEB
:1024C0000C17DFF808C2CCF8007002F002022F46A9
:1024D00092013A605A038261826182618261826103
:1024E00082618261826182618261826182618261D4
:1024F000022282618261C0F818E0CCF800B03E6030
:10250000CE07B60D01F0040746EA072601F0800762
:1025100046EA4706866101F0080601F0100746EA20
:10252000470603EA51073E4301F0400746EA071613
:1025300067463E6001F002012E46890131601104B8
:10254000816181618161816181618161816181617B
:102550008161816181618161816182618261836167
:102560004C4502DD20464C4681464FEA182308F0D0
:10257000FF0283E0D807800D03F0040640EA062638
:1025800003F0800046EA4000049003F0080603F0E0
:102590001000102146EA400001EA5306304303F0E0
:1025A000400640EA0610039003F00200800102900A
:1025B000D007800D02F0040640EA062002F08006F3
:1025C00040EA4600019002F0080002F010060227DF
:1025D00040EA460001EA5201084302F0400140EAA5
:1025E0000110009002F00200CC464FEA801E3848ED
:1025F0004FF0E068C0F81880344EC6F800B0C5F857
:1026000000A00499816103993160029929604FF417
:10261000003181618161816181618161816181615B
:10262000816181618161816181618161876187618E
:10263000C0F81880C6F800B0C5F800A0DDF8048026
:10264000C0F81880DDF80080C6F80080C5F800E00A
:10265000816181618161816181618161816181616A
:102660008161816181618161816187618761ACF193
:10267000010C0FFA8CFCBCF1000FB8D1201EA4F1A4
:10268000010424B23FF776AF1048012101600E48E3
:10269000817EC90707D0818BA1F5A852263A0FD1B8
:1026A0008178C9070CD0C189808905B0491EBDE871
:1026B000F04F401E0BB202B20021084600F0B6BC3B
:1026C00005B0BDE8F08F00000000002018040240B3
:1026D000000002401808024008B50021009004489C
:1026E000B0F90E30B0F90C200846FFF773FE08BDB4
:1026F0000000002008B52C4B5A8BC2F3003141403A
:102700001846D983808BD20721D05A79B2B1A0F56F
:102710000342473A06D0A0F5A442523A02D031B162
:10272000082005E009B1062002E0022000E00A20AE
:102730008DF8000001216A46084605E009B1212014
:1027400000E020200022114601F060FB08BD49F2A4
:102750002523C21A98421BD00DDCB0F5AA7F17D0F2
:10276000A0F5A150B0F5804017D0A0F27330B0F5BD
:10277000005F0BD111E0012A0AD0A2F58072013A64
:102780000BD0A2F2E312B2F5005F06D0612008E0A0
:10279000132040EA8101072003E041F0020140F2EA
:1027A000014000F035FF08BD000000200FB41B48B9
:1027B0007CB507AA069901F0C1FC0026174D184CFC
:1027C00026E00A2A1DD00D2A21D02178E08ACDE901
:1027D0000001A38AB4F91210B4F91000FFF778FDD4
:1027E0002078228A00EB400102EB410109B22182EC
:1027F000E27862B1A0EB8000F02202EB4000884258
:1028000005DA608A617800EBC100608226826D1C67
:102810002A78002AD5D17CBC5DF814FB5800002032
:102820000000002013460A46194601F0EFBA0000E6
:102830002DE9FF4FFF4F81B09146F88C00900E9923
:102840000498484304B200267879354620B9B87E0A
:10285000C00701D02E20009002980844401E03B209
:10286000049901980844401E02B2DDE9010100F01C
:10287000DDFB4FF4803B4BE3DFF8B8A39AF81A0076
:10288000C0070DD101985746284481B2BAF82200FA
:1028900000F0BEFE0298304481B2B88C00F0B8FE61
:1028A000E549C1F800B0E5484FF480118161009915
:1028B0004FF0E0630A0AC9B28361DF4F4FF08763CC
:1028C0003B60DF4B4FF40008C3F80080D707BF0D13
:1028D00002F0040C47EA0C2702F0800C47EA4C0790
:1028E000876102F0080702F0100C47EA4C074FF02E
:1028F000100E0EEA520C47EA0C0702F0400C47EAB1
:102900000C17DFF834C3CCF8007002F00202920119
:102910001A604FF400328261826182618261826159
:10292000826182618261826182618261826182618F
:102930004FF0020CC0F818C0C0F818C04FF0E062A9
:102940008261BD4F4FF087623A60C3F80080CA07CA
:10295000920D01F0040742EA072201F0800742EAE3
:102960004702826101F0080201F0100742EA4702C3
:102970000EEA51073A4301F0400742EA0712AE4F10
:102980003A6001F00201890119604FF40031816160
:102990008161816181618161816181618161816127
:1029A0008161816181618161C0F818C0C0F818C07F
:1029B000C0F818E0016821F47C1101609E491839C3
:1029C0000A68A04B1A400A609D4918390A6822F427
:1029D00040420A60BAF81A1057464A0658D4C90746
:1029E0005DD1B98BA1F59052893A58D0012383610A
:1029F0005946C0F818B0C0F818B0C0F818B0C0F800
:102A000018B0C0F818B0C0F818B0C0F818B0C0F8C6
:102A100018B0C0F818B0C0F818B0C0F818B0C0F8B6
:102A200018B0C0F818B0C0F818B0C0F818B00269F3
:102A3000DFF80C82A8F10808D8F8002002697E4A65
:102A4000083AD2F800C0D2F800C0D2F800C0D2F8DC
:102A500000C0D0F810C083618361836181618161AE
:102A60008161816181618161816181618161816156
:102A7000816181618161816181610169D8F80010A2
:102A800001691168116811681168016983618361C6
:102A9000BAF81C10A1F5A852113A2FD007E2012272
:102AA0008261C0F818B0C0F818B0C0F818B0C0F80B
:102AB00018B0C0F818B0C0F818B0C0F818B0C0F816
:102AC00018B0C0F818B0C0F818B0C0F818B0C0F806
:102AD00018B0C0F818B0C0F818B0C0F818B0016944
:102AE0005749083909680169534908390B680B6867
:102AF0000B680968016982618261C9E7012282610C
:102B0000C0F818B0C0F818B0C0F818B0C0F818B0C5
:102B1000C0F818B0C0F818B0C0F818B0C0F818B0B5
:102B2000C0F818B0C0F818B0C0F818B0C0F818B0A5
:102B3000C0F818B0C0F818B0C0F818B00169404922
:102B40000839096801693C4908390B680B680B684A
:102B50000968016982618261A9E13648478BF806FC
:102B600072D5364B4FF0010CC3F818C05846C3F865
:102B700018B0C3F818B0C3F818B0C3F818B0C3F849
:102B800018B0C3F818B0C3F818B0C3F818B0C3F839
:102B900018B0C3F818B0C3F818B0C3F818B0C3F829
:102BA00018B0C3F818B0C3F818B01969DFF890E08E
:102BB000C1F34022AEF1080EDEF8001001F08001F2
:102BC00042EA91111A6902F4806241EA12211A4A1A
:102BD000083AD2F8008008F0080841EA0801D2F863
:102BE000008008F0200841EA5801D2F8008008F07F
:102BF000100841EA4801D2F8008008F4806841EAF0
:102C00001811D3F81080C3F818C008F4807841EA8E
:102C1000580AC3F818C0C3F818C098619861986141
:102C200098619861986198619861986198619861DC
:102C300098610AE0000000201804024000000240F1
:102C4000180802403FF0CFFF7CE0986198619861DE
:102C50001969C1F34028DEF8001001F0800148EA4C
:102C60009111D3F8108008F4806841EA1821D2F855
:102C7000008008F0080841EA0801D2F8008008F056
:102C8000200841EA5801D2F8008008F0100841EA13
:102C90004801D2F8008008F4806841EA1811D3F89E
:102CA0001080C3F818C008F4807841EA5801C3F8CE
:102CB00018C0C3F818C098619861986198619861CC
:102CC000986198619861986198619861986198613C
:102CD000986198611869C0F34028DEF8000000F0A0
:102CE000800048EA9010D3F8108008F4806840EA29
:102CF0001820D2F8008008F0080840EA0800D2F84E
:102D0000008008F0200840EA5800D2F800801268DD
:102D100008F0100840EA480002F4806240EA12100D
:102D20001A69C3F818C002F4807240EA5200C3F86E
:102D300018C07A0701D5524601E002465046FFF717
:102D4000BDFAA1E07D48012383615946C0F818B05F
:102D5000C0F818B0C0F818B0C0F818B0C0F818B073
:102D6000C0F818B0C0F818B0C0F818B0C0F818B063
:102D7000C0F818B0C0F818B0C0F818B0C0F818B053
:102D8000C0F818B0C0F818B00269DFF8B4A1C2F3F7
:102D9000402CDAF8002002F080024CEA9212D0F8BF
:102DA00010C00CF4806C42EA1C2C664AD2F80080F9
:102DB00008F008084CEA080CD2F8008008F0200857
:102DC0004CEA580CD2F8008008F010084CEA480C85
:102DD000D2F8008008F480684CEA181CD0F8108003
:102DE000836108F480784CEA580C836183618161C7
:102DF00081618161816181618161816181618161C3
:102E00008161816181618161816181610169C1F358
:102E10004028DAF8001001F0800148EA9111D0F85A
:102E2000108008F4806841EA1821D2F8008008F088
:102E3000080841EA0801D2F8008008F0200841EAB9
:102E40005801D2F80080126808F0100841EA4801E1
:102E500002F4806241EA12110269836102F4807215
:102E600041EA5201836141EA0C20390703D5010A86
:102E700041EA002080B2790706D500F4FC6141EAFE
:102E8000D02141EAC02080B22F4A917941B120235C
:102E900020F03F0103EA50131943C0F344000843F4
:102EA00029F8020B641E907E24B2800702D5002C04
:102EB0007FF453AE6D1C04982DB2854206DB761C60
:102EC0000E98002536B2864200DB00261B48012101
:102ED00081611C4A08321160016821F47C11016093
:102EE000184910390A68194B1A400A60144A103AF6
:102EF000136823F440431360036843F4A81303608A
:102F00000868134B18430860106840F48040106054
:102F1000002C3FF7B1AC0C48817EC90709D1C189AB
:102F20008089491E0BB2401E02B20021084600F003
:102F30007DF805B00020BDE8F08F000000000240E1
:102F40001008024010040240000000203FF0CFFFB4
:102F5000400510001CB501221346009201AAFFF79C
:102F600067FCBDF804001CBD70B52A48012303713D
:102F70002948016821F47C11016028490A68284C1D
:102F800022400A60274A146824F44044146004680C
:102F900044F4A81404600C68234D2C430C6014689E
:102FA00044F480441460046824F00304641C046046
:102FB000046824F00C04241D0460046824F44074A4
:102FC00044F4807404600C6824F00304641C0C60F6
:102FD000116821F00C01091D1160104918310B60B6
:102FE0008361022383610F4C18342360322003F085
:102FF00019F84FF400302060642003F013F82360C8
:10300000642003F00FF8BDE870400021B02000F00C
:10301000FFBA00000000002000000240000402404F
:103020003FF0CFFF00080240400510002DE9F843B3
:1030300017464E4A0D460646918B10461C46807830
:10304000A1F51343273B0DD1022802D0032805D058
:1030500008E0203520342DB224B203E0203620379A
:1030600036B23FB2A1F5A853263B0FD1C0070DD011
:10307000B81B01B2601B00B208B119B106E0641CB4
:1030800024B203E03918201A0FB204B2907EC007B0
:1030900037D0F8B20090F1B2904692F828000A4674
:1030A000C7F30723C6F307210F4600F0A0FEE0B2E6
:1030B0000090C4F30723C5F30721EAB298F82C0067
:1030C0000C4600F094FE98F80500002817D0B8F8D8
:1030D0001C00652813D18DF800708DF801606A46D8
:1030E0000221B8F8220000F091FE8DF800408DF822
:1030F00001506A460221B8F8240000F087FEBDE8BE
:10310000F883B1B29046508C00F082FAA9B2B8F8B8
:10311000240000F07DFABE4201D1A542EFD098F81C
:103120001A0080060CD598F80200C00704D045EAC2
:10313000042004B2254603E046EA072006B23746DB
:10314000B1B2B8F8280000F063FAA9B2B8F82C00C0
:1031500000F05EFAB9B2B8F82A0000F059FAA1B24C
:10316000B8F82E00BDE8F84300F052BA0000002085
:103170002DE9FC47C64C00F003012246A170B2F9CC
:103180000A30CD07B2F90820002D01D01D4600E01D
:103190001546A58100D11A46E28131B1012906D038
:1031A00002297BD0032905D17AE0482100E02821BB
:1031B0008DF80010618BCA0505D59DF8002082F0BE
:1031C00080028DF800208A0505D59DF8002082F048
:1031D00040028DF800200A0505D59DF8002082F0F8
:1031E00008028DF80020AA4ACD074FF02001928BEB
:1031F0004FF022034FF0080974D0A2F5D045143DDA
:103200002FD041F6631149F2814541F211568A42AD
:1032100003D0AA4201D0B24244D19DF80000030677
:1032200003D540F001008DF80000C0B2430603D57D
:1032300040F002008DF800008A4203D100F03F0008
:103240008DF80000AA4203D100F02F008DF8000095
:10325000B2425DD100F0EF0040F0C0008DF80000F8
:1032600056E09DF80000402202EA500201EA5001B7
:1032700000F028008DF8000000200A438DF80400BB
:1032800042F002008DF805003B208DF8060001AAEF
:103290000321B62000F0BAFD3AE0FFE7982187E766
:1032A000F82185E7617979B3022161840625A58437
:1032B000E384218504216185A585A4F82E90652AE3
:1032C00011D0A2F5A44052382CD19DF8000040F056
:1032D00002008DF80000C10624D540F004008DF8EE
:1032E00000001FE02BE09DF80010CA0603D481F017
:1032F00081018DF80010C2074FF082004FF080016D
:1033000003D06084A1840DE002E06184A08409E020
:103310002A202B216084A1842C22E28420856085D0
:10332000A185E185607908B1162000E036206A4663
:10333000012100F06BFD9DF80000208483E047F23E
:103340009375501B21264FF400774FF480784FF48B
:10335000004CAA423ED006DCB2F5AA7F1FD0A2F5EF
:10336000A840203807E000F26D40B0F5005031D0A1
:10337000A0F50450E33868B36184A684E384502048
:103380002085512060855220A0855320E0859DF83E
:1033900000000CEA002040F41C5160203CE0372083
:1033A0002085362060853920A0853820E08561841D
:1033B000A684E3849DF8000007EA800108EA800003
:1033C0000143A2F58070393802D02820014329E05A
:1033D0002720FBE7678440F20120A084401CE084A2
:1033E0004FF404702085401C6085401CA085401C63
:1033F000E0859DF80000A2F513430CEA00214FF48C
:10340000D440263B03D0A2F5A843203B01D14FF482
:10341000545001434FF4806000F0FAF89DF800101A
:1034200008EA8101012000F0F3F89DF8001009EA94
:103430009100090701D540F4805040F0300121840B
:10344000032000F0E5F8A078C0070ED0608B40059F
:103450000BD4608CA18C6184A084208DA18D2185EA
:10346000A085608DE18D6185E085E0890021401EA9
:1034700003B2A089401E02B20846FFF7D7FD002222
:10348000B4F90A10104600F005F8BDE8FC8700000A
:10349000000000202DE9FC415C4F164649F227331D
:1034A000BA8B04469A4206D1B878022801D0032884
:1034B00001D1203424B27889001B401A00B29A420C
:1034C00001D1203000B24B429E4201DD8E4200DB32
:1034D0000026A3191DB2002E01DA6B181DB2631865
:1034E0005B1E97F81AC01BB25FEACC7C49D0220A57
:1034F0008DF800208DF801400A0A8DF802208DF821
:103500000310010A8DF804108DF80500787908B1D0
:103510000E2000E033206A46062100F077FC280ADE
:103520008DF800008DF80150787908B1142000E082
:1035300037206A46022100F069FC7879A8B148F288
:10354000473136B1B88B884201D1022002E0082011
:1035500000E000208DF80000B88B884201D11820CF
:1035600000E001206A46012107E0002E07D1B87E65
:10357000C00704D000221146132000F047FCBDE82C
:10358000FC81224849F22527D61BC18BBA4241F063
:10359000020022D00FDCB2F5AA7F1ED0A2F5A15204
:1035A000B2F5804225D0A2F26332B2F500520ED0BD
:1035B000102A0BD11DE0012E0FD0A6F58076013E1A
:1035C00017D0A6F2E316B6F5005F12D001466120CF
:1035D00000F01EF8A9B26A2013E099B2312000F081
:1035E00017F8A1B2322000F013F8281B81B2332063
:1035F00007E0014640F2014000F00AF8A9B240F2AB
:103600000440BDE8FC4100F003B8000000000020C9
:1036100002F0A8BE7FB500241648009401940294DD
:103620001349039401604FF48031C0E9011404612F
:10363000047680F820400903C1620125C5614FF07E
:10364000C061C460816280F830504561FDF71CFBA9
:1036500008B1FDF770FA0920CDE90005694602942A
:103660000448FDF76BFA002801D0FDF764FA7FBD2E
:103670000020014058FB0020114808B5016841F4C2
:1036800080010160016801F480010091016841F44A
:10369000001101600068002200F400100090114643
:1036A0002F20FDF735FE2F20FDF724FE00221146C6
:1036B0003820FDF72DFEBDE808403820FDF71ABE82
:1036C00030380240F0B587B014216846FCF7B8FDE9
:1036D00030480024016841F004010160016801F0F4
:1036E00004010591016841F080010160016801F069
:1036F00080010591016841F001010160016801F05C
:1037000001010591016841F0020101600068224E4B
:1037100000F002000590002241F28C413046FDF796
:1037200081FD1E4F002220213846FDF77BFD4FF41E
:10373000005000904FF40410CDE901046946304672
:10374000FDF79EFC41F20C4000901120CDE90104F0
:10375000694630460394FDF793FC20200090012534
:10376000CDE90154694638460394FDF789FC702081
:103770008DE8310069463046FDF782FC80200090DC
:10378000CDE90154694630460394FDF779FC07B052
:10379000F0BD000030380240000802400000024046
:1037A00010B586B000241648009401940294039446
:1037B00004944FF08041059401605321C0E9011445
:1037C0001821C0E903148461FEF7BCF808B1FDF7C5
:1037D000B2F94FF48050009069460948FEF720F98D
:1037E00008B1FDF7A8F92020CDE9040404A9044894
:1037F000FEF76AF8002801D0FDF79DF906B010BD6C
:1038000000FC002010B58EB00024079408940994A1
:103810000A940B941C2168460C94FCF711FD1E4879
:103820001C49C0E9001440F63301C0E9024180217F
:1038300004618161FEF786F808B1FDF77CF94FF469
:103840008050079007A91448FEF7EAF808B1FDF781
:1038500072F91148FEF7E4F908B1FDF76CF90B9421
:103860000BA90D480C94FEF72FF808B1FDF763F98A
:103870006020CDE9000402940822694606480494B9
:10388000FEF768F908B1FDF756F90348FEF738F975
:103890000EB010BD0004004048FC00200C4810B5DC
:1038A0000A4901604FF4E1314160002181600C223E
:1038B000C160C0E904128161C161FEF7D9FA002834
:1038C00003D0BDE81040FDF736B910BD00440040FC
:1038D000F0FC0020FEE7FEE770477047FDF7AEBC46
:1038E00030B593B030216846FCF7AAFC14210CA82F
:1038F000FCF7A6FC1E480025016841F080510160DC
:10390000006800F0805011901A48016821F440418D
:1039100041F4004101600068022400F4404011902D
:10392000012003901020009406940490CDE90750E4
:103930004FF4A870099004200A9007200B90684665
:10394000FDF702FE08B172B6FEE70CA90F2081E870
:1039500031004FF48050CDE90F0502210CA8FDF78E
:1039600009FD002801D072B6FEE713B030BD00009B
:1039700040380240007000400248016841F4700184
:103980000160704788ED00E0F0B502681D4C1E4DE7
:103990001E4E1F4F4FF0804CA04207D0604505D00F
:1039A000A84203D0B04201D0B84203D122F0700344
:1039B0004A681A43A04210D060450ED0A8420CD0ED
:1039C000B0420AD0B84208D0124B984205D0124BF0
:1039D000984202D0114B984203D122F44073CA6836
:1039E0001A434B6922F080021A4302608A68C2625D
:1039F0000A688262A04201D1096901630121416123
:103A0000F0BD00000000014000040040000800403C
:103A1000000C0040004001400044014000480140CB
:103A200010B501F01F010123046A8B409C4304621E
:103A3000036A8A401343036210BD10B5846B0121F1
:103A4000626A824205D12177C069F8B984F83E10D4
:103A50001CE0A26A824206D102222277C069A8B97C
:103A600084F83F1012E0E26A824206D104222277F3
:103A7000C06958B984F8401008E0226B824205D131
:103A800008222277C06908B984F841102046FEF761
:103A9000F5F80020207710BD10B5846B616A814273
:103AA00001D101200DE0A16A814201D1022008E08C
:103AB000E16A814201D1042003E0216B814201D1FE
:103AC000082020772046FEF7F3F80020207710BD6D
:103AD00010B5846B0121626A824203D1217784F898
:103AE0003E1019E0A26A824204D10220207784F8B5
:103AF0003F1011E0E26A824204D10420207784F86A
:103B0000401009E0226B824204D10820207784F81B
:103B1000411001E084F83D102046FDF7EFFF002042
:103B2000207710BD10B5846842EA032224F47F4454
:103B30000A432243826010BD826822F070020A4369
:103B400042F007018160704730B5026A22F001023D
:103B50000262036A4268846924F073050C682C438E
:103B600023F002058B682B430C4DA84206D123F0AD
:103B70000805CB6843EA050323F0040307D14D6928
:103B800022F4407245EA02058A6942EA050242606F
:103B9000846149684163036230BD00000000014058
:103BA00030B5026A22F010020262026A4368846938
:103BB0000D6824F4E64444EA05248D6822F02002CE
:103BC00042EA05120C4DA84206D1CD6822F08002CF
:103BD00042EA051222F0400207D14D6923F4406306
:103BE00043EA85038D6943EA85034360846149683C
:103BF0008163026230BD00000000014030B5026AFE
:103C000022F480720262036A4268C46923F400737A
:103C100024F073050C682C438D6843EA05230C4D92
:103C2000A84206D1CD6823F4006343EA052323F4B8
:103C3000806307D14D6922F4405242EA05128D6932
:103C400042EA05124260C4614968C163036230BD43
:103C50000000014030B5026A22F480520262036A19
:103C60004268C4690D6824F4E64444EA05248D687A
:103C700023F4005343EA0533064DA84204D14D69AD
:103C800022F4804242EA85124260C46149680164BC
:103C9000036230BD0000014010B5046A036A23F0DE
:103CA00001030362836923F0F00343EA021324F063
:103CB0000A020A438361026210BD10B5036A23F051
:103CC000100303628469036A24F4704444EA0232F4
:103CD00023F0A00343EA01118261016210BD0000DC
:103CE00070B5044600680169E26821F4405111434F
:103CF0000161A1682069E2690143606910430143E1
:103D00002068C26849F20C639A430A43C260206883
:103D10004169A26921F44071114341613149206830
:103D2000884202D03049884202D1FDF7CDFB01E044
:103D3000FDF7BAFBE2690023192164253226B2F5AA
:103D4000004F626828D0A0FB0101930F9200FCF79E
:103D50003FFA0146B0FBF5F06FF01802504301EB5B
:103D6000800006EB0010B0FBF5F000F0F002B1FBB4
:103D7000F5F002EB0012B1FBF5F06FF018035843B9
:103D800001EB800006EB0010B0FBF5F000F00F0037
:103D900021681044886070BDA0FB010192185B414E
:103DA000FCF716FA0146B0FBF5F00201B1FBF5F0A5
:103DB0006FF01803584301EB800006EBC000B0FB26
:103DC000F5F000F0F80002EB4002B1FBF5F05843CB
:103DD00001EB800006EBC000B0FBF5F000F007003F
:103DE000D6E700000010014000140140FEE738B59E
:103DF0008DF800108DF80120049C8DF802308DF8AC
:103E000003406A46042100F001F838BD2DE9F04F67
:103E1000C64B4FF480341C602301C54CA3614FF0A6
:103E2000E068050AC3B2C4F81880C04F4FF0876934
:103E3000C7F80090BF4F4FF4000AC7F800A0EE0784
:103E4000B60D05F0040746EA072605F0800746EAA6
:103E50004706A66105F0080605F0100746EA470781
:103E6000102606EA550C47EA0C0705F0400C47EA15
:103E70000C17DFF8B8C2CCF80070AE4F05F00205A1
:103E8000AD013D604FF4003BC4F818B0C4F818B061
:103E9000C4F818B0C4F818B0C4F818B0C4F818B012
:103EA000C4F818B0C4F818B0C4F818B0C4F818B002
:103EB000C4F818B0C4F818B0C4F818B04FF0020E27
:103EC0007546C4F818E0C4F818E0C4F81880CCF8B7
:103ED0000090BC46CCF800A0DF07BF0D03F0040C37
:103EE00047EA0C2703F0800C47EA4C07A76103F070
:103EF000080703F0100C47EA4C0706EA530C47EAA0
:103F00000C0703F0400C47EA0C17DFF820C2CCF88E
:103F10000070884F03F002039B013B607303A361B1
:103F2000A361A361A361A361A361A361A361A36171
:103F3000A361A361A361A361A561A561A6616746B1
:103F4000EAE012F8013B4FF0E065A5614FF08765AC
:103F50003D60DFF8E0814FF40005C8F80050DD0750
:103F6000AD0D03F0040645EA062503F0800645EA98
:103F70004605A56103F0080503F0100645EA46066C
:103F8000102505EA530C46EA0C0603F0400C46EAFD
:103F90000C163E6003F002039B01C8F80030C4F821
:103FA00018B0C4F818B0C4F818B0C4F818B0C4F801
:103FB00018B0C4F818B0C4F818B0C4F818B0C4F8F1
:103FC00018B0C4F818B0C4F818B0C4F818B0C4F8E1
:103FD00018B0C4F818E0C4F818E000297ED0564B99
:103FE0005B79002B7AD0401C2B0480B2A3614FF088
:103FF000E06C060AC3B2C4F818C04FF0876CC7F86B
:1040000000C04FF4000CC146C8F800C04FEAC67C9F
:104010004FEA9C5C06F004084CEA082C06F0800885
:104020004CEA480CC4F818C006F0080C06F010085A
:10403000AA464CEA480C05EA56054CEA050C06F07F
:1040400040054CEA05153D6006F00205AE01C9F8D1
:1040500000605D46C4F818B0C4F818B0C4F818B0D1
:10406000C4F818B0C4F818B0C4F818B0C4F818B040
:10407000C4F818B0C4F818B0C4F818B0C4F818B030
:10408000C4F818B0C4F818B07646C4F818E0C4F8FC
:1040900018E04FF0E06CC4F818C04FF0876CC7F818
:1040A00000C04FF4000CC9F800C04FEAC37C4FEACF
:1040B0009C5C03F004084CEA082C03F080084CEAEE
:1040C000480CC4F818C003F0080C03F010084CEAC0
:1040D000480C0AEA53084CEA080C00E01CE003F024
:1040E00040084CEA081CC7F800C003F002034FEA7E
:1040F000831CC9F800C0A561A561A561A561A56182
:10410000A561A561A561A561A561A561A561A5617F
:10411000A661A661C4F818A00B1EA1F1010149B265
:104120003FF70FAF01203860BDE8F08F1804024060
:1041300000000240180802400000002037B5144675
:104140000846064B6A46214601F0DAFB04466946FA
:10415000002001F058FF20463EBD00000760000827
:1041600003B401984100009850EAC12018BF042010
:104170004A0D18BF40F0010040F2FF72B2EB515FF0
:1041800008BF40F00200012808BF052002B07047B8
:104190000907090E002804DB00F1E02080F8001474
:1041A000704700F00F0000F1E02080F8141D704708
:1041B0002DE9F04D2DED040B2DED0E8B96B0DDE9C4
:1041C0002550279CDDF890A025F0004624F00048FB
:1041D000BAF1000F14BF0121002101EB4502FC4997
:1041E00053184A1093422AD3002814BF01230023F6
:1041F00003EB44030B44F7498B4220D358EA0001F8
:104200009FEDF59B76D0DFF8D8B35D4503D1BAF1C9
:10421000000F05D188E0BAF1000F08BF002100D0DF
:10422000012101EB450111F5001F08D8002814BF3A
:104230000121002101EB440111F5001F0BD99DED77
:10424000261B9DED240B16B0BDEC0E8B04B0BDE813
:10425000F04D01F043BA0027002DBCBFE14988456D
:1042600021DAE1498845A8BF02271CDAC3451ADCD8
:10427000DE4901EB2851142908DDC1F1340220FA8E
:1042800002F101FA02F282420DD108E058B9C1F1FF
:10429000140228FA02F101FA02F2424503D101F0B8
:1042A0000101C1F1020756EA0A0124D1002C22DAE9
:1042B000002D18BF022F01D0012F0AD0022001F0DB
:1042C00057FA16B0BDEC0E8B04B0BDE8F04D01F00E
:1042D000E3B9022001F04CFA01F0DEF951EC100BC9
:1042E00081F0004141EC100B16B0BDEC0E8B04B018
:1042F000BDE8F08D18E09FEDBEAB9FEDBF8B0028B1
:1043000071D1B848804522D105F1804010F5801068
:1043100008BFBAF1000F07D0B3450ADC002CA8BFD4
:104320009DED260BE0DA0DE0B0EE490AF0EE690AE9
:10433000DAE7002C06DA9DED260B51EC100B81F02C
:1043400000416FE0AE48784490ED000BCCE7D845D3
:104350004DD1002C48DA2EB186423AD1BAF1000F85
:1043600042D126E0BAF1000F13D0022001F000FA8A
:1043700001F0CEF98DED020B9DED240B8DED000BC0
:1043800010EE900A039961F31E0003909DED020B5D
:10439000AAE78DED02AB9DED240B1AEE901A10EEFC
:1043A000900A8DED000B61F31E0003909DED020B52
:1043B0009AE78DED028B9DED240B18EE901A10EE0E
:1043C000900A8DED000B61F31E0003909DED020B32
:1043D0008AE709DA9DED240B51EC190B53EC102BF5
:1043E000FCF752F81EE020E09DED240B7CE78642AE
:1043F0001BDAB4F1804F0DD0A4F10050B0F1FF50A2
:1044000013D1002D11DB9DED240B51EC100B01F0AD
:1044100071FF07E09DED240B53EC102B51EC100BBA
:1044200000F0C2BC41EC100B5EE79DED240B51EC9B
:10443000100B01F006FEBAF1000FCDE90E0142D1DA
:104440009FED710B46B3A6F1E040B0F17F600CD058
:104450005E4538D1002D00DAA7B3022F0CBF012032
:104460004FF0FF30FCF77FF8DCE7002D01DD002C7A
:104470000DDA002D01DD002C1FDB002D16DA002CDB
:1044800014DB012F08BF9FED620B3FF42DAFB0EEA0
:104490004A0AF0EE6A0A27E7022F18BF002D0CD057
:1044A000012F0AD1002DFFF61FAF06E0002DB8BF87
:1044B000002C08DA012F3FF417AFB0EE480AF0EEF7
:1044C000680A11E71BE0012000EBE57050EA0701E4
:1044D00015D0791EB0EE498AF0EE698A084308BF0C
:1044E0009FED4D8B4E480025804570DD4D494E486F
:1044F000884514DDB0420DDB002C19DB2FE00120D4
:1045000001F036F916B0BDEC0E8B04B0BDE8F04DED
:1045100001F0EEB8B34502DC002C09DC1FE0864256
:1045200002DA002C1BDA03E05E452BDD002C16DDE1
:10453000022001F01DF901F0EBF88DED020B53ECB8
:104540001A2B51EC180BFBF72DFFCDE90001039955
:10455000019861F31E0003909DED020BC4E602205A
:1045600001F006F901F0E4F810EE901A18EE900A46
:104570008DED020B8DED008B61F31E0003909DED20
:10458000020BB1E69DED0E0B53EC192B51EC100B09
:10459000FBF702FF9FED260BCDE9080153EC102B32
:1045A0009DED080B51EC100BFBF7FCFE9FED221B61
:1045B00053EC112BFBF7F3FE9DED081B53EC112B75
:1045C000FBF7F0FE9FED1E1B53EC112B3CE08CE043
:1045D000FFFF1F00FFFF0F00000000000000F03F82
:1045E0000000F03F0000F07F0000404301FCFFFFAF
:1045F000000000000000F07F00000000000000004C
:10460000062C0000000000000000000000000080F8
:10461000000000000000F0FF000000000000F0BFFC
:104620000000E0410000F043FFFFEF3F000000000A
:10463000000000000000D03F555555555555D53F59
:10464000000000000000E03FFBF7A9FE9DED080B15
:1046500041EC1A0B53EC102B51EC100BFBF7A2FEA4
:1046600053EC1A2BFBF79EFE41EC1A0B9FEDFE0B51
:1046700053EC102B9DED080B51EC100BFBF792FE49
:1046800041EC1B0B9FEDFA0B51EC1A0B53EC102B6A
:10469000FBF788FE41EC1A0B9FEDF70B53EC102B48
:1046A0009DED080B51EC100BFBF77CFE53EC1A2B25
:1046B000FBF772FE41EC1A0B51EC1B0B53EC1A2B5F
:1046C000FBF7C9FD0690CDE906519DED060B53ECB5
:1046D0001B2B51EC100BFBF75FFE53EC1A2BFBF777
:1046E0005EFE41EC100B00F0A1B90020B6F5801F72
:1046F0000EDA9FEDE30B53EC102B9DED0E0B51ECFE
:10470000100BFBF74FFECDE90E016FF034000E46A3
:1047100000EB2650A0F2FF37C6F31300DA4940F051
:104720007F6646F040568842D8BF002408DDD7494E
:104730008142C8BF012403DC0024A6F580167F1C3B
:10474000D348784400EBC4000F9690ED00CB9DED6C
:104750000E0B53EC1C2B51EC100BFBF71DFE9DEDCB
:104760000E0B41EC1B0B53EC1C2B51EC100BFBF70D
:1047700072FD41EC100B51EC190B53EC102BFBF7B5
:1047800083FE41EC1D0B51EC1B0B53EC1D2BFBF777
:1047900009FE41EC1A0BBF488DED10AB7844109523
:1047A00090ED000B4FF0005040EA660000EB8440B3
:1047B0008DED080B00F5002009909DED080B53ECE2
:1047C0001C2B51EC100BFBF7E7FD9DED0E1B53EC82
:1047D000112BFBF7E4FD41EC100B53EC102B9DED7E
:1047E000100B51EC100BFBF7DDFD9DED080B41ECC0
:1047F0001C0B53EC102B9DED100B51EC100BFBF729
:10480000D1FD53EC1B2BFBF7CAFD53EC1C2BFBF724
:10481000C3FD53EC1D2BFBF7C5FD41EC1C0B53EC0A
:104820001A2B51EC1A0BFBF7BDFD41EC1B0B9A4800
:104830000621B0EE4B0AF0EE6B0A784400F018FE49
:10484000B0EE401AF0EE601AB0EE41DAF0EE61DA46
:1048500053EC1B2B51EC1B0BFBF7A4FD53EC1D2B56
:10486000FBF7A0FD9DED100B41EC1B0B53EC1A2B3D
:1048700051EC100BFBF7EFFC53EC1C2BFBF792FDFC
:1048800053EC1B2BFBF7E7FC9DED100B41EC1B0BD6
:1048900053EC102B51EC100BFBF784FD41EC1D0B7E
:1048A0009FED7FEB53EC1E2BFBF7D5FC53EC1B2B42
:1048B000FBF7D1FC0890CDE908519DED080B53ECB6
:1048C0001E2B51EC100BFBF767FD53EC1D2BFBF778
:1048D00063FD53EC1B2BFBF762FD9DED080B41ECD8
:1048E0001D0B53EC102B9DED100B51EC100BFBF737
:1048F00059FD41EC1B0B53EC1A2B51EC1D0BFBF734
:1049000051FD9DED080B41EC1A0B53EC102B51ECB3
:104910001C0BFBF747FD53EC1A2BFBF79CFC41ECFF
:104920001A0B51EC1B0B53EC1A2BFBF794FC0C905D
:10493000CDE90C519DED0C0B53EC1B2B51EC100BE6
:10494000FBF72AFD53EC1A2BFBF729FD41EC1B0B5F
:104950009FED550B53EC102B9DED0C0B51EC100BF8
:10496000FBF720FD41EC1A0B9FED510B51EC1B0B9B
:1049700053EC102BFBF716FD41EC1B0B9FED4E0B80
:1049800053EC102B9DED0C0B51EC100BFBF70AFDBB
:1049900053EC1B2BFBF75FFC41EC100B48487844B1
:1049A00000EBC40090ED001B51EC100B53EC112BED
:1049B000FBF751FC41EC1B0B3846FBF7D4FDCDE96E
:1049C000080153EC1B2B51EC1A0BFBF744FC41EC98
:1049D000100B3C48784400EBC40090ED00CB51EC48
:1049E000100B53EC1C2BFBF736FC9DED081B53EC16
:1049F000112BFBF730FC0690CDE906519DED080B1D
:104A000053EC102B9DED060B51EC100BFBF7C4FC87
:104A100053EC1C2BFBF7C0FC53EC1A2BFBF7BCFC34
:104A200053EC1B2BFBF7BBFC41EC100B9DED261B45
:104A300053EC102B8DED001B00959DED260B51ECDA
:104A4000100BFBF7AFFC9DED000B41EC1A0B53EC88
:104A5000102B9DED260B51EC100BFBF79DFC9DEDF3
:104A6000061B53EC112B2FE0000000604715F73FA9
:104A7000FE822B654715F73F44DF5DF80BAE543ED1
:104A800000000000000040438E9803007AB60B003F
:104A900052270000B02700008A2600000000000016
:104AA0000000000000000840000000E009C7EE3FE1
:104AB000FD033ADC09C7EE3FF5015B14E02F3EBE73
:104AC00016250000D0240000FBF76CFC53EC1A2BD9
:104AD000FBF7C1FB9DED060B41EC1A0B53EC102BC1
:104AE0009DED000B51EC100BFBF75CFCCDE90C01CC
:104AF0009DED0C0B51EC1A0B53EC102BFBF7ABFBA1
:104B0000CDE902010C46AA498C422FDB611A084309
:104B100018D19DED0C0B53EC102B9DED020B51ECBD
:104B2000100BFBF739FC41EC1B0B9FEDA30B51EC79
:104B30001A0B53EC102BFBF78EFB53EC1B2BFBF7E4
:104B400055FD2DD2022000F013FE00F0E1FD10EE25
:104B5000901A18EE900A8DED020B8DED008B61F32B
:104B60001E0003909DED020BFFF7BEBB944A24F09C
:104B70000041914214D39349214408437FF4EFACA0
:104B80009DED0C0B53EC102B9DED020B51EC100B1B
:104B9000FBF702FC53EC1A2BFBF728FD7FF6DFAC8A
:104BA00024F000408849894A002601EB20518242C6
:104BB0002BDA481C4FF4801121FA00F02044844A7B
:104BC000C0F30A517A44A1F2FF3192ED000B814A01
:104BD0008DED080BCA4020EA0202C0F3130040F436
:104BE0008010C1F1140120FA01F60992002CB8BF1F
:104BF00076429DED080B53EC102B9DED0C0B51EC08
:104C0000100BFBF7C9FBCDE90C019DED0C0B51EC32
:104C10001A0B53EC102BFBF71EFB9FED6F0B08904C
:104C2000CDE9085153EC102B9DED080B51EC100B06
:104C3000FBF7B8FB41EC1B0B9FED690B53EC102B02
:104C40009DED080B51EC100BFBF7ACFB9DED0C0B35
:104C500041EC1C0B53EC102B9DED080B51EC100B91
:104C6000FBF79AFB53EC1A2BFBF799FB9FED5E1BAE
:104C700053EC112BFBF796FB53EC1C2BFBF7EBFAD9
:104C800041EC1A0B51EC1B0B53EC1A2BFBF7E3FA1C
:104C9000CDE902019DED020B53EC1B2B51EC100BE7
:104CA000FBF77AFB53EC1A2BFBF779FB9DED020B1C
:104CB00041EC1A0B53EC102B51EC100BFBF772FB71
:104CC000CDE908014A489DED080B0521784400F024
:104CD000CFFB9DED081B51EC100B53EC112BFBF798
:104CE00061FB9DED021B53EC112BFBF758FBCDE94B
:104CF00006019DED020B53EC1A2B51EC100BFBF748
:104D000051FB53EC1A2BFBF7A6FA9FED3B0B41EC42
:104D10001A0B53EC102B9DED060B51EC100BFBF70F
:104D20003BFB9DED060B41EC1B0B53EC102B9DED5B
:104D3000020B51EC100BFBF735FB53EC1B2BFBF775
:104D4000A3FB53EC1A2BFBF727FB9DED021B53EC47
:104D5000112BFBF721FB53EC192BFBF720FBCDE9C3
:104D6000020101EB065001150029C8BF039015DCB4
:104D70009DED020B324651EC100BFBF746FDFFF7A1
:104D8000EFF9042808BF00F0D3FC32469DED020B7A
:104D900051EC100BFBF739FDCDE902019DED020B43
:104DA00051EC180B53EC102BFBF7FCFAFFF73ABB56
:104DB0000000904000000000FE822B654715973CE4
:104DC00000CC904000346F3F01FCFFFF0000E03F4B
:104DD00088230000FFFF0F0000000000432EE63F85
:104DE000396CA80C615C20BEEF39FAFE422EE63F1A
:104DF0002822000000000000000000000000004029
:104E000010B52F499FED2C1B2DED020B84B005989A
:104E100020F000408842DCBF00209DED040B32DD15
:104E20002849884209D1049840B94FF0010000F0A8
:104E30009FFC00F05DFC06B010BD05DB9DED040B92
:104E400000F042FC06B010BD68469DED040B00F07A
:104E50003BF810F0030011D0012818D09DED021B83
:104E60009DED000B02281AD000F04AFA51EC100B0D
:104E700081F0004106B041EC100B10BD9DED021B0E
:104E80009DED000B012000F06FFB06B010BD9DED05
:104E9000021B9DED000B00F033FA06B010BD01209F
:104EA00000F062FB51EC100B81F0004106B041ECC8
:104EB000100B10BD0000000000000000000000000A
:104EC000FB21E93F0000F07F2DE9F14F04462DED75
:104ED000020B2DED088B8AB09FEDE70B80ED020BE6
:104EE000139EE74826F0004585420ADC9DED120B33
:104EF000002084ED000B0AB0BDEC088B03B0BDE8C8
:104F0000F08FE0489FEDE0AB9FEDE1BBA84247DDAD
:104F1000E14F9FEDE39B9FEDE48B9DED120B53EC76
:104F20001A2B51EC100B002E1CDDFBF735FA41EC6F
:104F3000100BBD4208D053EC1B2B51EC100BFBF7B0
:104F40002BFAC4E900010BE053EC192B51EC100BC8
:104F5000FBF722FA53EC182BFBF71EFAC4E9000109
:104F60000120C8E7FBF777F941EC100BBD4208D0F0
:104F700053EC1B2B51EC100BFBF76DF9C4E900014E
:104F80000BE053EC192B51EC100BFBF764F953ECCD
:104F9000182BFBF760F9C4E900014FF0FF30AAE7D6
:104FA000C348A84279DB9DED120B51EC100B01F0C8
:104FB00048F841EC180B9FEDC00B53EC102BFBF79E
:104FC000F1F99FEDBF1B53EC112BFBF744F9FBF7F5
:104FD000DBFA0746FBF7C7FA41EC190B53EC1A2B27
:104FE000FBF7E0F953EC182BFBF7D9F941EC180B60
:104FF00053EC1B2B51EC190BFBF7D4F9DFF8C8A2CB
:1050000041EC100B4FEA15580125FA4453EC102BD4
:1050100051EC180BFBF7C0F9032DC4E900013DD09A
:10502000C1F30A5005EB4511A8EB0000113981428C
:1050300034DA0AEB051BB0EE48AA9BED000BF0EE4C
:1050400068AA53EC102B51EC190BFBF7ABF941ECB0
:105050001B0B51EC1A0B53EC1B2BFBF79DF941EC8E
:10506000180B51EC1A0B53EC182BFBF795F953EC7A
:105070001B2BFBF791F99BED020B41EC1A0B53EC48
:10508000102B51EC190BFBF78DF953EC1A2BFBF796
:1050900083F941EC100B6D1CB8E70EE0002EA8BFA1
:1050A0003846BFF628AF94ED000B51EC100B81F0A1
:1050B0000041C4E9000178421DE7C6F3130040F443
:1050C000801EC6F30A50A0F2F530471100F01F050C
:1050D000C5F12000DDF848B0089000200690079048
:1050E0000520EC467949002D07EB0002794408BF02
:1050F00051F8221009D051F8223001EB8201AB4067
:105100004A68089922FA01F11943A1FB0E26A1FB76
:105110000B131A449A4234BF0123002303EB060801
:105120000CEB8003D3E901A60E448E4234BF01216B
:10513000002192448A4411B1924502D903E092457C
:1051400001D2012100E00021C3E901A641444CF84D
:105150002010011EA0F10100C4DC029800F10050F3
:10516000850F0298DDE903678000DDF81480FBF706
:10517000FAF941EC1A0B3046FBF7DAFB9FED541BB2
:1051800053EC112BFBF70EF941EC1B0B3846FBF7E8
:10519000CFFB9FED511B53EC112BFBF703F941ECB7
:1051A000180B4046FBF7C4FB9FED4D1B53EC112B36
:1051B000FBF7F8F841EC190B51EC180B53EC192BD9
:1051C000FBF749F853EC1B2BFBF745F853EC1A2B74
:1051D000FBF741F8CDE90801002008909DED080B90
:1051E00053EC1A2B51EC100BFBF7D6F853EC1B2B9E
:1051F000FBF7D2F853EC182BFBF7CEF853EC192B36
:10520000FBF7CDF89FED381B53EC112BFBF7CAF8D9
:105210009FED370B41EC180B53EC102B9DED080B59
:1052200051EC100BFBF7BEF853EC182BFBF713F8FF
:105230009FED310B41EC180B53EC102B9DED080B3F
:1052400051EC100BFBF7AEF853EC182BFBF703F8FF
:1052500041EC100B139810F0004F06D06D4251EC4A
:10526000100B81F0004141EC100B284684ED000B3F
:1052700041E6000000000000000000000000000007
:10528000FB21E93F7CD9024000004054FB21F93F5B
:105290003163621A61B4D03DFB21F93F0000000088
:1052A0000000601A61B4D03D7370032E8A19A33BCD
:1052B000FB2139410000000083C8C96D305FE43F25
:1052C000000000000000E03F4A1F0000981E0000A0
:1052D000000000000000103E000000000000103C34
:1052E000000000000000103A182D4454FB21F93D45
:1052F0003326A611460B113C00000054FB21F93D5A
:1053000010B52DED040B2DED088B82B0B0EE419A57
:10531000F0EE619A0B9820F000449FED4BABB4F196
:10532000795F11DA9DED0A0B51EC100BFBF72CF9AC
:10533000002801BFB0EE4A0AF0EE6A0A02B0BDECE6
:10534000088B04BF04B010BD9DED0A0B53EC102B6D
:1053500051EC100BFBF726F841EC180B3C480621EA
:10536000B0EE480AF0EE680A784400F081F853EC99
:10537000182B51EC100BFBF715F89DED0A0B41ECC7
:105380001B0B53EC192B51EC100BFBF70BF841ECFA
:10539000190B53EC1B2B51EC180BFBF703F853ECD8
:1053A000192BFAF7F9FF9FED2C0B41EC190B53EC7D
:1053B000102B51EC180BFAF7F5FF41EC100B2848B5
:1053C000844210DA53EC192B51EC100BFAF7E4FF7E
:1053D00053EC1A2BFAF7E3FF41EC100B02B0BDECD3
:1053E000088B04B010BD1F48A042BCBF9FED1E1B20
:1053F0008DED001B06DBA4F500100190002000904D
:105400009DED001B51EC100B53EC112BFAF7C4FF70
:105410009DED000B41EC180B53EC102B51EC1A0BCB
:10542000FAF7BAFF41EC1A0B53EC192B51EC180B9D
:10543000FAF7B2FF53EC1A2BFAF7B1FF41EC100B5D
:10544000CCE7000000000000000000000000F03F7A
:10545000B41B000000000000000000000000E03F5E
:105460003333D33F0000E93F000000000000D23F8B
:1054700070B504462DED028B4D1E00EBC500B0EE5D
:10548000408AF0EE608A90ED000B35F0060017D0F0
:1054900053EC182B51EC100BFAF784FF41EC100B76
:1054A0006D1E04EBC50090ED001B51EC100B53EC8E
:1054B000112BFAF7D0FE41EC100B35F00600E7D1C6
:1054C000022D36D0042D1CD0062D1CBFBDEC028B46
:1054D00070BD53EC182B51EC100BFAF763FF94EDF1
:1054E0000A1B53EC112BFAF7B6FE53EC182BFAF704
:1054F00059FF94ED081B53EC112BFAF7ACFE41EC6D
:10550000100B53EC182B51EC100BFAF74BFF94EDEA
:10551000061B53EC112BFAF79EFE53EC182BFAF7EF
:1055200041FF94ED040B53EC102BFAF794FE41EC81
:10553000100B53EC182B51EC100BFAF733FF94EDD2
:10554000021B53EC112BFAF786FE53EC182BFAF7DB
:1055500029FF94ED001B53EC112BFAF77CFEBDECF8
:10556000028B41EC100B70BD31B504462DED040BE0
:105570002DED0A8BB0EE41BAF0EE61BA0B989DEDBD
:105580000A0B20F00040B0F1795F0DDA51EC100BFE
:10559000FEF7E6FD042808BF00F0CAF89DED0A0BEF
:1055A000BDEC0A8B05B030BD53EC102B51EC100B49
:1055B000FAF7F8FE41EC180B9DED0A0B53EC182B93
:1055C00051EC100BFAF7EEFE41EC190B2C48B0EE43
:1055D000480AF0EE680A05217844FFF749FF9FED7D
:1055E0002ACBB0EE40AAF0EE60AA9CB353EC1C2B81
:1055F00051EC190BFAF7D6FE41EC1C0B53EC1A2BAD
:1056000051EC190BFAF7CEFE9FED210B41EC190B73
:1056100053EC102B51EC1B0BFAF7C4FE53EC192B77
:10562000FAF7BAFE53EC182BFAF7BCFE53EC1B2B1F
:10563000FAF7B2FE53EC1C2BFAF7AEFE9DED0A1BF7
:1056400053EC112BFAF7ABFEBDEC0A8B05B041EC25
:10565000100B30BDFFE753EC1A2B51EC180BFAF787
:10566000A1FE53EC1C2BFAF7F6FD53EC192BFAF7BD
:1056700099FE9DED0A1B53EC112BFAF7ECFDE3E7C5
:10568000441A000000000000495555555555C5BF46
:10569000000000000000E03F9FED070B10B553EC49
:1056A000102B9FED070B51EC100BFAF7EDFE41ECC0
:1056B000100B10BD00000000000000000000000002
:1056C000000000000000F03F10B553EC102B51EC2F
:1056D000100BFAF7C0FD41EC100B10BD10B553ECE8
:1056E000112B51EC100BFAF7B6FD41EC100B10BD6D
:1056F0009FED050B10B553EC102B51EC100BFAF786
:10570000C3FE41EC100B10BD0000000000000000C3
:105710009FED050B10B553EC102B51EC100BFAF765
:1057200041FE41EC100B10BD0000000000000070B5
:105730009FED050B10B553EC102B51EC100BFAF745
:1057400031FE41EC100B10BD000000000000001005
:1057500002E008C8121F08C1002AFAD1704770473A
:10576000002001E001C1121F002AFBD17047000098
:105770000149086070470000540000202DE9FF5FD8
:1057800082B00021DDE90430020DDDF840B00343B2
:1057900018D044F61050A2F2FF324243151411986B
:1057A00001281FD0A5EB0B00401C5FEA000A4FF058
:1057B00000064E4FDFF83891B046504615D5CAF175
:1057C000000413E0119801244AA3012801D16FEAD3
:1057D0000B010298119AC0E90031C0E9024206B0FB
:1057E000BDE8F09FCBF10000DFE704460021404A0E
:1057F000491842EB0450CDE9001012E0E00707D051
:1058000032463B4640464946FAF7CCFD804689463B
:1058100032463B4610461946FAF7C4FD06460F4687
:105820006410002CEAD1DDE90401DDE90023BAF1BE
:10583000000F06DAFAF7B6FD42464B46FAF7B2FD1C
:1058400005E0FAF721FE42464B46FAF71DFE0446F4
:105850000E460022284BFAF7C9FE03D84FF0FF305E
:10586000014607E00022254B20463146FAF7F3FCBB
:10587000FBF733F8102409E0002C0ADB0A2200238E
:10588000FAF7A6FC039B30321A55641E50EA010257
:10589000F2D1641C039AC4F111031444119A012A31
:1058A00003D0012208430DD10AE0084304D00020B0
:1058B0004FF0110B119072E7A3EB0B056D1E0DE07D
:1058C0005B4504DD4FF0000205F1010504E003DA59
:1058D0004FF00002A5F10105002AECD002981199C1
:1058E000C0E90231C0E9004579E70000000014403A
:1058F0000000F03F300000000000F0430000E03FF7
:105900002DE9FF4F95B09A46884606460025EEE100
:10591000252877D100242746F94A0121039400E085
:10592000044316F8013F203B01FA03F01042F7D17F
:1059300030782A2811D06FF02F033078A0F1300290
:10594000092A16D8039A44F0020402EB820203EB00
:1059500042021044761C0390EFE758F8042B0392A0
:10596000002A03DA504244F40054039044F0020445
:10597000761C30782E2816D116F8010F44F0040456
:105980002A280DD06FF02F023078A0F13003092BB8
:1059900009D807EB870302EB4303C718761CF3E72C
:1059A00058F8047B761C30786C280FD006DC4C2825
:1059B00017D068280DD06A2814D104E0742810D0BC
:1059C0007A280FD10DE044F400140AE044F4801466
:1059D00001E044F440147278824202D104F580144C
:1059E000761C761C307866280BD013DC582877D0CC
:1059F00009DC002875D04528F6D04628F4D0472881
:105A00001AD193E118E0632835D0642879D065284D
:105A100012D18BE1702873D008DC6728F1D0692897
:105A20006FD06E280DD06F2806D1ACE073282CD033
:105A3000752874D0782853D05246179990476D1C1A
:105A400054E1C4F30250022809D003280DD0D8F83D
:105A5000001004280DD00D6008F1040846E1D8F8C4
:105A60000010EA17C1E90052F6E7D8F800100D80DF
:105A7000F2E70D70F0E718F8041B8DF80010002015
:105A80008DF80100EB46012003E058F804BB4FF00D
:105A9000FF3061074FF0000102D40DE009F1010170
:105AA0008946B9420FDA8145F8DB1BF80910002955
:105AB000F4D108E009F1010189468142FADB1BF8C3
:105AC00009100029F6D103985346A0EB0907214697
:105AD0003846179A00F080FA284400EB090507E0E1
